{
  "_format": "hh-sol-artifact-1",
  "contractName": "Certification",
  "sourceName": "contracts/Certification.sol",
  "abi": [
    {
      "anonymous": false,
      "inputs": [
        {
          "indexed": false,
          "internalType": "string",
          "name": "_CertificateID",
          "type": "string"
        }
      ],
      "name": "certificateGenerated",
      "type": "event"
    },
    {
      "inputs": [
        {
          "internalType": "string",
          "name": "_CertificateID",
          "type": "string"
        },
        {
          "internalType": "string",
          "name": "_HashedValue",
          "type": "string"
        },
        {
          "internalType": "uint256",
          "name": "_ExpiryTime",
          "type": "uint256"
        }
      ],
      "name": "GenerateCertificate",
      "outputs": [],
      "stateMutability": "nonpayable",
      "type": "function"
    },
    {
      "inputs": [
        {
          "internalType": "string",
          "name": "_CertificateID",
          "type": "string"
        },
        {
          "internalType": "string",
          "name": "_HashedValue",
          "type": "string"
        }
      ],
      "name": "GenerateCertificateWithInfinity",
      "outputs": [],
      "stateMutability": "nonpayable",
      "type": "function"
    },
    {
      "inputs": [
        {
          "internalType": "string",
          "name": "_CertificateID",
          "type": "string"
        }
      ],
      "name": "RetrieveData",
      "outputs": [
        {
          "internalType": "string",
          "name": "",
          "type": "string"
        },
        {
          "internalType": "string[]",
          "name": "",
          "type": "string[]"
        },
        {
          "internalType": "string",
          "name": "",
          "type": "string"
        },
        {
          "internalType": "uint256",
          "name": "",
          "type": "uint256"
        }
      ],
      "stateMutability": "view",
      "type": "function"
    },
    {
      "inputs": [
        {
          "internalType": "string",
          "name": "",
          "type": "string"
        }
      ],
      "name": "certificates",
      "outputs": [
        {
          "internalType": "string",
          "name": "CertificateID",
          "type": "string"
        },
        {
          "internalType": "string",
          "name": "Latest",
          "type": "string"
        },
        {
          "internalType": "uint256",
          "name": "ExpiryTime",
          "type": "uint256"
        }
      ],
      "stateMutability": "view",
      "type": "function"
    }
  ],
  "bytecode": "0x608060405234801561001057600080fd5b50610ed7806100206000396000f3fe608060405234801561001057600080fd5b506004361061004c5760003560e01c806307de87c2146100515780637fae11561461006d5780638f2b91ea146100a0578063f97224ab146100d2575b600080fd5b61006b600480360381019061006691906109d5565b6100ee565b005b61008760048036038101906100829190610994565b61028b565b6040516100979493929190610c9a565b60405180910390f35b6100ba60048036038101906100b59190610994565b610598565b6040516100c993929190610cf4565b60405180910390f35b6100ec60048036038101906100e79190610a41565b610708565b005b600080836040516100ff9190610c61565b9081526020016040518091039020905060008160000180546001816001161561010002031660029004905014156102055782816000019080519060200190610148929190610866565b508060010182908060018154018082558091505060019003906000526020600020016000909190919091509080519060200190610186929190610866565b508181600201908051906020019061019f929190610866565b507fffffffffffffffffffffffffffffffffffffffffffffffffffffffffffffffff81600301819055507f267fae70dc2912ede5096795f49d41fac472461a02e4f8703eceee0e785bbd1d836040516101f89190610c78565b60405180910390a1610286565b8060010182908060018154018082558091505060019003906000526020600020016000909190919091509080519060200190610242929190610866565b507fffffffffffffffffffffffffffffffffffffffffffffffffffffffffffffffff816003018190555081816002019080519060200190610284929190610866565b505b505050565b60608060606000806000866040516102a39190610c61565b9081526020016040518091039020600001805460018160011615610100020316600290049050141561030a576040517f08c379a000000000000000000000000000000000000000000000000000000000815260040161030190610d39565b60405180910390fd5b6103126108e6565b6000866040516103229190610c61565b9081526020016040518091039020604051806080016040529081600082018054600181600116156101000203166002900480601f0160208091040260200160405190810160405280929190818152602001828054600181600116156101000203166002900480156103d45780601f106103a9576101008083540402835291602001916103d4565b820191906000526020600020905b8154815290600101906020018083116103b757829003601f168201915b5050505050815260200160018201805480602002602001604051908101604052809291908181526020016000905b828210156104be578382906000526020600020018054600181600116156101000203166002900480601f0160208091040260200160405190810160405280929190818152602001828054600181600116156101000203166002900480156104aa5780601f1061047f576101008083540402835291602001916104aa565b820191906000526020600020905b81548152906001019060200180831161048d57829003601f168201915b505050505081526020019060010190610402565b505050508152602001600282018054600181600116156101000203166002900480601f01602080910402602001604051908101604052809291908181526020018280546001816001161561010002031660029004801561055f5780601f106105345761010080835404028352916020019161055f565b820191906000526020600020905b81548152906001019060200180831161054257829003601f168201915b50505050508152602001600382015481525050905080600001518160200151826040015183606001519450945094509450509193509193565b600081805160208101820180518482526020830160208501208183528095505050505050600091509050806000018054600181600116156101000203166002900480601f01602080910402602001604051908101604052809291908181526020018280546001816001161561010002031660029004801561065a5780601f1061062f5761010080835404028352916020019161065a565b820191906000526020600020905b81548152906001019060200180831161063d57829003601f168201915b505050505090806002018054600181600116156101000203166002900480601f0160208091040260200160405190810160405280929190818152602001828054600181600116156101000203166002900480156106f85780601f106106cd576101008083540402835291602001916106f8565b820191906000526020600020905b8154815290600101906020018083116106db57829003601f168201915b5050505050908060030154905083565b600080846040516107199190610c61565b9081526020016040518091039020905060008160000180546001816001161561010002031660029004905014156107ff5783816000019080519060200190610762929190610866565b5080600101839080600181540180825580915050600190039060005260206000200160009091909190915090805190602001906107a0929190610866565b50828160020190805190602001906107b9929190610866565b508181600301819055507f267fae70dc2912ede5096795f49d41fac472461a02e4f8703eceee0e785bbd1d846040516107f29190610c78565b60405180910390a1610860565b806001018390806001815401808255809150506001900390600052602060002001600090919091909150908051906020019061083c929190610866565b508181600301819055508281600201908051906020019061085e929190610866565b505b50505050565b828054600181600116156101000203166002900490600052602060002090601f016020900481019282601f106108a757805160ff19168380011785556108d5565b828001600101855582156108d5579182015b828111156108d45782518255916020019190600101906108b9565b5b5090506108e2919061090e565b5090565b6040518060800160405280606081526020016060815260200160608152602001600081525090565b5b8082111561092757600081600090555060010161090f565b5090565b600082601f83011261093c57600080fd5b813561094f61094a82610d8a565b610d59565b9150808252602083016020830185838301111561096b57600080fd5b610976838284610e35565b50505092915050565b60008135905061098e81610e8a565b92915050565b6000602082840312156109a657600080fd5b600082013567ffffffffffffffff8111156109c057600080fd5b6109cc8482850161092b565b91505092915050565b600080604083850312156109e857600080fd5b600083013567ffffffffffffffff811115610a0257600080fd5b610a0e8582860161092b565b925050602083013567ffffffffffffffff811115610a2b57600080fd5b610a378582860161092b565b9150509250929050565b600080600060608486031215610a5657600080fd5b600084013567ffffffffffffffff811115610a7057600080fd5b610a7c8682870161092b565b935050602084013567ffffffffffffffff811115610a9957600080fd5b610aa58682870161092b565b9250506040610ab68682870161097f565b9150509250925092565b6000610acc8383610b49565b905092915050565b6000610adf82610dca565b610ae98185610ded565b935083602082028501610afb85610dba565b8060005b85811015610b375784840389528151610b188582610ac0565b9450610b2383610de0565b925060208a01995050600181019050610aff565b50829750879550505050505092915050565b6000610b5482610dd5565b610b5e8185610dfe565b9350610b6e818560208601610e44565b610b7781610e79565b840191505092915050565b6000610b8d82610dd5565b610b978185610e0f565b9350610ba7818560208601610e44565b610bb081610e79565b840191505092915050565b6000610bc682610dd5565b610bd08185610e20565b9350610be0818560208601610e44565b80840191505092915050565b6000610bf9602783610e0f565b91507f43657274696669636174652077697468207468697320494420646f6573206e6f60008301527f74206578697374000000000000000000000000000000000000000000000000006020830152604082019050919050565b610c5b81610e2b565b82525050565b6000610c6d8284610bbb565b915081905092915050565b60006020820190508181036000830152610c928184610b82565b905092915050565b60006080820190508181036000830152610cb48187610b82565b90508181036020830152610cc88186610ad4565b90508181036040830152610cdc8185610b82565b9050610ceb6060830184610c52565b95945050505050565b60006060820190508181036000830152610d0e8186610b82565b90508181036020830152610d228185610b82565b9050610d316040830184610c52565b949350505050565b60006020820190508181036000830152610d5281610bec565b9050919050565b6000604051905081810181811067ffffffffffffffff82111715610d8057610d7f610e77565b5b8060405250919050565b600067ffffffffffffffff821115610da557610da4610e77565b5b601f19601f8301169050602081019050919050565b6000819050602082019050919050565b600081519050919050565b600081519050919050565b6000602082019050919050565b600082825260208201905092915050565b600082825260208201905092915050565b600082825260208201905092915050565b600081905092915050565b6000819050919050565b82818337600083830152505050565b60005b83811015610e62578082015181840152602081019050610e47565b83811115610e71576000848401525b50505050565bfe5b6000601f19601f8301169050919050565b610e9381610e2b565b8114610e9e57600080fd5b5056fea26469706673582212206dc9065c94f8054f3a263eb59b5f418a0bc471268bb9020ab8da29ceee73756564736f6c63430007030033",
  "linkReferences": {},
  "deployedLinkReferences": {}
}